{
  "contractName": "CourseMarketplace",
  "abi": [
    {
      "inputs": [],
      "stateMutability": "nonpayable",
      "type": "constructor"
    },
    {
      "inputs": [],
      "name": "CourseHasOwner",
      "type": "error"
    },
    {
      "inputs": [],
      "name": "CourseIsNotCreated",
      "type": "error"
    },
    {
      "inputs": [],
      "name": "InvalidState",
      "type": "error"
    },
    {
      "inputs": [],
      "name": "OnlyOwner",
      "type": "error"
    },
    {
      "inputs": [],
      "name": "SenderIsNotCourseOwner",
      "type": "error"
    },
    {
      "inputs": [
        {
          "internalType": "bytes16",
          "name": "courseId",
          "type": "bytes16"
        },
        {
          "internalType": "bytes32",
          "name": "proof",
          "type": "bytes32"
        }
      ],
      "name": "purchaseCourse",
      "outputs": [],
      "stateMutability": "payable",
      "type": "function",
      "payable": true
    },
    {
      "inputs": [
        {
          "internalType": "bytes32",
          "name": "courseHash",
          "type": "bytes32"
        }
      ],
      "name": "repurchaseCourse",
      "outputs": [],
      "stateMutability": "payable",
      "type": "function",
      "payable": true
    },
    {
      "inputs": [
        {
          "internalType": "address",
          "name": "newOwner",
          "type": "address"
        }
      ],
      "name": "transferOwnership",
      "outputs": [],
      "stateMutability": "nonpayable",
      "type": "function"
    },
    {
      "inputs": [],
      "name": "getCourseCount",
      "outputs": [
        {
          "internalType": "uint256",
          "name": "",
          "type": "uint256"
        }
      ],
      "stateMutability": "view",
      "type": "function",
      "constant": true
    },
    {
      "inputs": [
        {
          "internalType": "uint256",
          "name": "index",
          "type": "uint256"
        }
      ],
      "name": "getCourseHashAtIndex",
      "outputs": [
        {
          "internalType": "bytes32",
          "name": "",
          "type": "bytes32"
        }
      ],
      "stateMutability": "view",
      "type": "function",
      "constant": true
    },
    {
      "inputs": [
        {
          "internalType": "bytes32",
          "name": "courseHash",
          "type": "bytes32"
        }
      ],
      "name": "activateCourse",
      "outputs": [],
      "stateMutability": "nonpayable",
      "type": "function"
    },
    {
      "inputs": [
        {
          "internalType": "bytes32",
          "name": "courseHash",
          "type": "bytes32"
        }
      ],
      "name": "deactivateCourse",
      "outputs": [],
      "stateMutability": "nonpayable",
      "type": "function"
    },
    {
      "inputs": [
        {
          "internalType": "bytes32",
          "name": "courseHash",
          "type": "bytes32"
        }
      ],
      "name": "getCourseByHash",
      "outputs": [
        {
          "components": [
            {
              "internalType": "uint256",
              "name": "id",
              "type": "uint256"
            },
            {
              "internalType": "uint256",
              "name": "price",
              "type": "uint256"
            },
            {
              "internalType": "bytes32",
              "name": "proof",
              "type": "bytes32"
            },
            {
              "internalType": "address",
              "name": "owner",
              "type": "address"
            },
            {
              "internalType": "enum CourseMarketplace.State",
              "name": "state",
              "type": "uint8"
            }
          ],
          "internalType": "struct CourseMarketplace.Course",
          "name": "",
          "type": "tuple"
        }
      ],
      "stateMutability": "view",
      "type": "function",
      "constant": true
    },
    {
      "inputs": [],
      "name": "getContractOwner",
      "outputs": [
        {
          "internalType": "address",
          "name": "",
          "type": "address"
        }
      ],
      "stateMutability": "view",
      "type": "function",
      "constant": true
    }
  ],
  "bytecode": "0x608060405234801561001057600080fd5b506100203361002560201b60201c565b610069565b80600360006101000a81548173ffffffffffffffffffffffffffffffffffffffff021916908373ffffffffffffffffffffffffffffffffffffffff16021790555050565b611140806100786000396000f3fe6080604052600436106100865760003560e01c80636d11290b116100595780636d11290b14610138578063935d7e6d1461017557806396cfda061461019e578063d76821cb146101c9578063f2fde38b146101e557610086565b8063392625721461008b578063442890d5146100b45780636136e1eb146100df57806362e4e6ac146100fb575b600080fd5b34801561009757600080fd5b506100b260048036038101906100ad9190610be3565b61020e565b005b3480156100c057600080fd5b506100c961036f565b6040516100d69190610c51565b60405180910390f35b6100f960048036038101906100f49190610be3565b610399565b005b34801561010757600080fd5b50610122600480360381019061011d9190610be3565b6104d5565b60405161012f9190610d82565b60405180910390f35b34801561014457600080fd5b5061015f600480360381019061015a9190610dc9565b6105b0565b60405161016c9190610e05565b60405180910390f35b34801561018157600080fd5b5061019c60048036038101906101979190610be3565b6105cd565b005b3480156101aa57600080fd5b506101b361080d565b6040516101c09190610e2f565b60405180910390f35b6101e360048036038101906101de9190610ea2565b610817565b005b3480156101f157600080fd5b5061020c60048036038101906102079190610f0e565b6109b7565b005b61021661036f565b73ffffffffffffffffffffffffffffffffffffffff163373ffffffffffffffffffffffffffffffffffffffff161461027a576040517f5fc483c500000000000000000000000000000000000000000000000000000000815260040160405180910390fd5b61028381610a2f565b6102b9576040517f4db0c48300000000000000000000000000000000000000000000000000000000815260040160405180910390fd5b60008060008381526020019081526020016000209050600060028111156102e3576102e2610ca3565b5b8160030160149054906101000a900460ff16600281111561030757610306610ca3565b5b1461033e576040517fbaf3f0f700000000000000000000000000000000000000000000000000000000815260040160405180910390fd5b60018160030160146101000a81548160ff0219169083600281111561036657610365610ca3565b5b02179055505050565b6000600360009054906101000a900473ffffffffffffffffffffffffffffffffffffffff16905090565b6103a281610a2f565b6103d8576040517f4db0c48300000000000000000000000000000000000000000000000000000000815260040160405180910390fd5b6103e181610a9d565b610417576040517fcce31cc400000000000000000000000000000000000000000000000000000000815260040160405180910390fd5b600080600083815260200190815260200160002090506002808111156104405761043f610ca3565b5b8160030160149054906101000a900460ff16600281111561046457610463610ca3565b5b1461049b576040517fbaf3f0f700000000000000000000000000000000000000000000000000000000815260040160405180910390fd5b60008160030160146101000a81548160ff021916908360028111156104c3576104c2610ca3565b5b02179055503481600101819055505050565b6104dd610b4e565b6000808381526020019081526020016000206040518060a00160405290816000820154815260200160018201548152602001600282015481526020016003820160009054906101000a900473ffffffffffffffffffffffffffffffffffffffff1673ffffffffffffffffffffffffffffffffffffffff1673ffffffffffffffffffffffffffffffffffffffff1681526020016003820160149054906101000a900460ff16600281111561059357610592610ca3565b5b60028111156105a5576105a4610ca3565b5b815250509050919050565b600060016000838152602001908152602001600020549050919050565b6105d561036f565b73ffffffffffffffffffffffffffffffffffffffff163373ffffffffffffffffffffffffffffffffffffffff1614610639576040517f5fc483c500000000000000000000000000000000000000000000000000000000815260040160405180910390fd5b61064281610a2f565b610678576040517f4db0c48300000000000000000000000000000000000000000000000000000000815260040160405180910390fd5b60008060008381526020019081526020016000209050600060028111156106a2576106a1610ca3565b5b8160030160149054906101000a900460ff1660028111156106c6576106c5610ca3565b5b146106fd576040517fbaf3f0f700000000000000000000000000000000000000000000000000000000815260040160405180910390fd5b60008160030160009054906101000a900473ffffffffffffffffffffffffffffffffffffffff1673ffffffffffffffffffffffffffffffffffffffff16826001015460405161074b90610f6c565b60006040518083038185875af1925050503d8060008114610788576040519150601f19603f3d011682016040523d82523d6000602084013e61078d565b606091505b50509050806107d1576040517f08c379a00000000000000000000000000000000000000000000000000000000081526004016107c890610fde565b60405180910390fd5b60028260030160146101000a81548160ff021916908360028111156107f9576107f8610ca3565b5b021790555060008260010181905550505050565b6000600254905090565b6000823360405160200161082c929190611067565b60405160208183030381529060405280519060200120905061084d81610a9d565b15610884576040517fb0fc2d9700000000000000000000000000000000000000000000000000000000815260040160405180910390fd5b600060026000815480929190610899906110c2565b9190505590508160016000838152602001908152602001600020819055506040518060a001604052808281526020013481526020018481526020013373ffffffffffffffffffffffffffffffffffffffff1681526020016000600281111561090457610903610ca3565b5b81525060008084815260200190815260200160002060008201518160000155602082015181600101556040820151816002015560608201518160030160006101000a81548173ffffffffffffffffffffffffffffffffffffffff021916908373ffffffffffffffffffffffffffffffffffffffff16021790555060808201518160030160146101000a81548160ff021916908360028111156109a9576109a8610ca3565b5b021790555090505050505050565b6109bf61036f565b73ffffffffffffffffffffffffffffffffffffffff163373ffffffffffffffffffffffffffffffffffffffff1614610a23576040517f5fc483c500000000000000000000000000000000000000000000000000000000815260040160405180910390fd5b610a2c81610b0a565b50565b60008073ffffffffffffffffffffffffffffffffffffffff1660008084815260200190815260200160002060030160009054906101000a900473ffffffffffffffffffffffffffffffffffffffff1673ffffffffffffffffffffffffffffffffffffffff1614159050919050565b60003373ffffffffffffffffffffffffffffffffffffffff1660008084815260200190815260200160002060030160009054906101000a900473ffffffffffffffffffffffffffffffffffffffff1673ffffffffffffffffffffffffffffffffffffffff16149050919050565b80600360006101000a81548173ffffffffffffffffffffffffffffffffffffffff021916908373ffffffffffffffffffffffffffffffffffffffff16021790555050565b6040518060a00160405280600081526020016000815260200160008019168152602001600073ffffffffffffffffffffffffffffffffffffffff16815260200160006002811115610ba257610ba1610ca3565b5b81525090565b600080fd5b6000819050919050565b610bc081610bad565b8114610bcb57600080fd5b50565b600081359050610bdd81610bb7565b92915050565b600060208284031215610bf957610bf8610ba8565b5b6000610c0784828501610bce565b91505092915050565b600073ffffffffffffffffffffffffffffffffffffffff82169050919050565b6000610c3b82610c10565b9050919050565b610c4b81610c30565b82525050565b6000602082019050610c666000830184610c42565b92915050565b6000819050919050565b610c7f81610c6c565b82525050565b610c8e81610bad565b82525050565b610c9d81610c30565b82525050565b7f4e487b7100000000000000000000000000000000000000000000000000000000600052602160045260246000fd5b60038110610ce357610ce2610ca3565b5b50565b6000819050610cf482610cd2565b919050565b6000610d0482610ce6565b9050919050565b610d1481610cf9565b82525050565b60a082016000820151610d306000850182610c76565b506020820151610d436020850182610c76565b506040820151610d566040850182610c85565b506060820151610d696060850182610c94565b506080820151610d7c6080850182610d0b565b50505050565b600060a082019050610d976000830184610d1a565b92915050565b610da681610c6c565b8114610db157600080fd5b50565b600081359050610dc381610d9d565b92915050565b600060208284031215610ddf57610dde610ba8565b5b6000610ded84828501610db4565b91505092915050565b610dff81610bad565b82525050565b6000602082019050610e1a6000830184610df6565b92915050565b610e2981610c6c565b82525050565b6000602082019050610e446000830184610e20565b92915050565b60007fffffffffffffffffffffffffffffffff0000000000000000000000000000000082169050919050565b610e7f81610e4a565b8114610e8a57600080fd5b50565b600081359050610e9c81610e76565b92915050565b60008060408385031215610eb957610eb8610ba8565b5b6000610ec785828601610e8d565b9250506020610ed885828601610bce565b9150509250929050565b610eeb81610c30565b8114610ef657600080fd5b50565b600081359050610f0881610ee2565b92915050565b600060208284031215610f2457610f23610ba8565b5b6000610f3284828501610ef9565b91505092915050565b600081905092915050565b50565b6000610f56600083610f3b565b9150610f6182610f46565b600082019050919050565b6000610f7782610f49565b9150819050919050565b600082825260208201905092915050565b7f5472616e73666572206661696c65642e00000000000000000000000000000000600082015250565b6000610fc8601083610f81565b9150610fd382610f92565b602082019050919050565b60006020820190508181036000830152610ff781610fbb565b9050919050565b6000819050919050565b61101961101482610e4a565b610ffe565b82525050565b60008160601b9050919050565b60006110378261101f565b9050919050565b60006110498261102c565b9050919050565b61106161105c82610c30565b61103e565b82525050565b60006110738285611008565b6010820191506110838284611050565b6014820191508190509392505050565b7f4e487b7100000000000000000000000000000000000000000000000000000000600052601160045260246000fd5b60006110cd82610c6c565b91507fffffffffffffffffffffffffffffffffffffffffffffffffffffffffffffffff82036110ff576110fe611093565b5b60018201905091905056fea26469706673582212207dfb8c629db1d6d7bb7ccd75e4e7066af01a2401a94a32e0ad7a5f0f70d4d3ee64736f6c63430008130033",
  "immutableReferences": {},
  "source": "// SPDX-License-Identifier: MIT\r\npragma solidity ^0.8.19;\r\n\r\ncontract CourseMarketplace {\r\n    enum State {\r\n        Purchased,\r\n        Activated,\r\n        Deactivated\r\n    }\r\n\r\n    struct Course {\r\n        uint id;\r\n        uint price;\r\n        bytes32 proof;\r\n        address owner;\r\n        State state;\r\n    }\r\n\r\n    // mapping of courseHash to Course data\r\n    mapping(bytes32 => Course) private ownedCourses;\r\n\r\n    // mapping of courseID to courseHash\r\n    mapping(uint => bytes32) private ownedCourseHash;\r\n\r\n    // number of all courses + id of the course\r\n    uint private totalOwnedCourses;\r\n\r\n    address payable private owner;\r\n\r\n    constructor() {\r\n        setContractOwner(msg.sender);\r\n    }\r\n\r\n    /// Course has already an Owner!\r\n    error CourseHasOwner();\r\n\r\n    /// Only owner has an access!\r\n    error OnlyOwner();\r\n\r\n    /// Course is not created!\r\n    error CourseIsNotCreated();\r\n\r\n    /// Course has invalid state!\r\n    error InvalidState();\r\n\r\n    /// Sender is not course owner!\r\n    error SenderIsNotCourseOwner();\r\n\r\n    modifier onlyOwner() {\r\n        if (msg.sender != getContractOwner()) {\r\n            revert OnlyOwner();\r\n        }\r\n        _;\r\n    }\r\n\r\n    function purchaseCourse(bytes16 courseId, bytes32 proof) external payable {\r\n        bytes32 courseHash = keccak256(abi.encodePacked(courseId, msg.sender));\r\n\r\n        if (hasCourseOwnership(courseHash)) {\r\n            revert CourseHasOwner();\r\n        }\r\n\r\n        uint id = totalOwnedCourses++;\r\n        ownedCourseHash[id] = courseHash;\r\n        ownedCourses[courseHash] = Course({\r\n            id: id,\r\n            price: msg.value,\r\n            proof: proof,\r\n            owner: msg.sender,\r\n            state: State.Purchased\r\n        });\r\n    }\r\n\r\n    function repurchaseCourse(bytes32 courseHash) external payable {\r\n        if (!isCourseCreated(courseHash)) {\r\n            revert CourseIsNotCreated();\r\n        }\r\n\r\n        if (!hasCourseOwnership(courseHash)) {\r\n            revert SenderIsNotCourseOwner();\r\n        }\r\n\r\n        Course storage course = ownedCourses[courseHash];\r\n\r\n        if (course.state != State.Deactivated) {\r\n            revert InvalidState();\r\n        }\r\n\r\n        course.state = State.Purchased;\r\n        course.price = msg.value;\r\n    }\r\n\r\n    function transferOwnership(address newOwner) external onlyOwner {\r\n        setContractOwner(newOwner);\r\n    }\r\n\r\n    function getCourseCount() external view returns (uint) {\r\n        return totalOwnedCourses;\r\n    }\r\n\r\n    function getCourseHashAtIndex(uint index) external view returns (bytes32) {\r\n        return ownedCourseHash[index];\r\n    }\r\n\r\n    function activateCourse(bytes32 courseHash) external onlyOwner {\r\n        if (!isCourseCreated(courseHash)) {\r\n            revert CourseIsNotCreated();\r\n        }\r\n        Course storage course = ownedCourses[courseHash];\r\n\r\n        if (course.state != State.Purchased) {\r\n            revert InvalidState();\r\n        }\r\n        course.state = State.Activated;\r\n    }\r\n\r\n    function deactivateCourse(bytes32 courseHash) external onlyOwner {\r\n        if (!isCourseCreated(courseHash)) {\r\n            revert CourseIsNotCreated();\r\n        }\r\n        Course storage course = ownedCourses[courseHash];\r\n\r\n        if (course.state != State.Purchased) {\r\n            revert InvalidState();\r\n        }\r\n\r\n        (bool success, ) = course.owner.call{value: course.price}(\"\");\r\n        require(success, \"Transfer failed.\");\r\n\r\n        course.state = State.Deactivated;\r\n        course.price = 0;\r\n    }\r\n\r\n    function isCourseCreated(bytes32 courseHash) private view returns (bool) {\r\n        return ownedCourses[courseHash].owner != address(0);\r\n    }\r\n\r\n    function getCourseByHash(\r\n        bytes32 courseHash\r\n    ) external view returns (Course memory) {\r\n        return ownedCourses[courseHash];\r\n    }\r\n\r\n    function getContractOwner() public view returns (address) {\r\n        return owner;\r\n    }\r\n\r\n    function hasCourseOwnership(\r\n        bytes32 courseHash\r\n    ) private view returns (bool) {\r\n        return ownedCourses[courseHash].owner == msg.sender;\r\n    }\r\n\r\n    function setContractOwner(address newOwner) private {\r\n        owner = payable(newOwner);\r\n    }\r\n}\r\n",
  "sourcePath": "D:\\Projects\\blockchain\\marketplace-eth\\contracts\\CourseMarketplace.sol",
  "compiler": {
    "name": "solc",
    "version": "0.8.19+commit.7dd6d404.Emscripten.clang"
  },
  "schemaVersion": "3.4.16",
  "updatedAt": "2024-07-29T15:13:04.433Z",
  "networkType": "ethereum",
  "devdoc": {
    "kind": "dev",
    "methods": {},
    "version": 1
  },
  "userdoc": {
    "errors": {
      "CourseHasOwner()": [
        {
          "notice": "Course has already an Owner!"
        }
      ],
      "CourseIsNotCreated()": [
        {
          "notice": "Course is not created!"
        }
      ],
      "InvalidState()": [
        {
          "notice": "Course has invalid state!"
        }
      ],
      "OnlyOwner()": [
        {
          "notice": "Only owner has an access!"
        }
      ],
      "SenderIsNotCourseOwner()": [
        {
          "notice": "Sender is not course owner!"
        }
      ]
    },
    "kind": "user",
    "methods": {},
    "version": 1
  }
}